:0119B4002210
:0819920078BEEEF208EFF2222C
:0B19730078BEEBF208EAF208E9F2226D
:0500060078BEEFF222BC
:10183900EC4D4E4F6012EF24FFFFEE34FFFEED3406
:09184900FFFDEC34FFFC80E822F5
:1016B700766F6C0073617665642074696D653A00B6
:1016C700676F746F20736C6565702C206B6579701C
:1016D70072657373696E6700676F746F2069646CF6
:0216E70065009C
:100F4600C105811B00812400812300812200811DAF
:100F560000811F00811500811200811300811C038E
:100F66008217000081140082100000811A0082207E
:100F76000000C10782000000820200008204000017
:100F86008206000082080000820A0000820C00002F
:0F0F9600820E0000811900C106811E0081160025
:10050C00E4FFFE781DE2B40114783FE2FD08E278C6
:10051C0002CDF208EDF2781D7402F2804E781DE2E5
:10052C0064027047783FE2FC08E2FDC37803E29D69
:10053C0018E29C5011E2FE08E2FFC37840E29FFFF4
:10054C0018E29EFE80177802E2FE08E2FFC3E49FE9
:10055C00FFE49EFE7840E22FFF18E23EFEC3EF94CC
:10056C000AEE94004005781D7403F27812E2B4018F
:10057C0014783FE2FD08E2780CCDF208EDF2781227
:10058C007402F2804E7812E264027047783FE2FC0B
:10059C0008E2FDC3780DE29D18E29C5011E2FE08C2
:1005AC00E2FFC37840E29FFF18E29EFE8017780CB2
:1005BC00E2FE08E2FFC3E49FFFE49EFE7840E22FD8
:1005CC00FF18E23EFEC3EF9470EE941740057812CC
:1005DC007403F2781CE2B40114783FE2FD08E2786F
:1005EC000ECDF208EDF2781C7402F2804E781CE20B
:1005FC0064027047783FE2FC08E2FDC3780FE29D8D
:10060C0018E29C5011E2FE08E2FFC37840E29FFF23
:10061C0018E29EFE8017780EE2FE08E2FFC3E49F0C
:10062C00FFE49EFE7840E22FFF18E23EFEC3EF94FB
:10063C0064EE94004005781C7403F27815E2B40162
:10064C0014783FE2FD08E2780ACDF208EDF2781555
:10065C007402F2804E7815E264027047783FE2FC37
:10066C0008E2FDC3780BE29D18E29C5011E2FE08F3
:10067C00E2FFC37840E29FFF18E29EFE8017780AE3
:10068C00E2FE08E2FFC3E49FFFE49EFE7840E22F07
:10069C00FF18E23EFEC3EF9464EE9400400578151B
:1006AC007403F2781FE2B40114783FE2FD08E2789B
:1006BC0000CDF208EDF2781F7402F2804E781FE242
:1006CC0064027047783FE2FC08E2FDC37801E29DCA
:1006DC0018E29C5011E2FE08E2FFC37840E29FFF53
:1006EC0018E29EFE80177800E2FE08E2FFC3E49F4A
:1006FC00FFE49EFE7840E22FFF18E23EFEC3EF942B
:10070C0058EE94024005781F7403F27814E2B40199
:10071C0014783FE2FD08E27804CDF208EDF278148B
:10072C007402F2804F7814E264027048783FE2FC65
:10073C0008E2FDC37805E29D18E29C5011E2FE0828
:10074C00E2FFC37840E29FFF18E29EFE8017780418
:10075C00E2FE08E2FFC3E49FFFE49EFE7840E22F36
:10076C00FF18E23EFED37811E29F18E29E50057806
:10077C00147403F2781BE2FDB40114783FE2FB0819
:10078C00E27808CBF208EBF2781B7402F2804CEDA5
:10079C0064027047783FE2FC08E2FDC37809E29DF1
:1007AC0018E29C5011E2FE08E2FFC37840E29FFF82
:1007BC0018E29EFE80177808E2FE08E2FFC3E49F71
:1007CC00FFE49EFE7840E22FFF18E23EFEC3EF945A
:1007DC0032EE94004005781B7403F2781AE2FDB4F3
:1007EC000114783FE2FF08E27806CFF208EFF278C6
:1007FC001A7402F2804DED64027048783FE2FC08F6
:10080C00E2FDC37807E29D18E29C5011E2FE08E27B
:10081C00FFC37840E29FFF18E29EFE80177806E245
:10082C00FE08E2FFC3E49FFFE49EFE7840E22FFF48
:10083C0018E23EFED37821E29F18E29E5005781A0A
:10084C007403F2781AE264037032B20730070F783F
:10085C0020F2087414F212188412199A80191219C1
:10086C00AB7820E4F208741EF27823E2FF120B78C6
:0D087C007822E2FF120CC4781A7401F222F7
:1018E00012181D1219B41218F512198912190A12B8
:0518F0001679021884C6
:10140D00781EE27031781BE2FF700404F28027EF42
:10141D00640370227816E270047F0180027F0078E9
:10142D0016EFF27822E2FF120CC47823E2FF120BC2
:10143D0078781B7401F2781CE2B403127818E22458
:10144D0001F218E23400F2781C7401F28007781C66
:10145D00E2700204F2C37818E2940A18E294004094
:10146D0041121346781EEFF2F46037E47817F20854
:10147D00F27BFF7A1679B7121973781EE2FF7E00A0
:10148D00121992781EE2FFD3940040167816E26F7F
:10149D006010EFF27822E2FF120CC47823E2FF1203
:0314AD000B782297
:1000A600E478BDF212195B12195BE47819F21219A1
:1000B6009A121714E47812F208F2781AF2C2077844
:1000C60014F2781DF27815F2781FF27823F218F2FE
:1000D600C201C2037843F2C2057817F208740AF225
:1000E600781C7403F2E418F27816F2781EF21218ED
:1000F600E07F007E041218017824EFF2D394634067
:1001060002E4F27824E218F27BFF7A1679BB121920
:10011600737824E2FF7E001219927822E2FF120C15
:10012600C47823E2FF120B78781B7401F212050CD7
:10013600E4FF120E0B1214B0120055E478BDF278EB
:1001460028E2FF6007781DE2700204F2781DE2B42F
:10015600030AE4F278BDEFF2E47828F27843E2701D
:100166002E20012B2003287819E270237828E270CC
:100176001E78BDE270197812E2B4030A08E204F2AE
:10018600187401F2800F7812E2700A04F28006E415
:100196007813F218F27819E2700312140D7843E21C
:1001A600C3940350087813E2C39401406F7F007E26
:1001B600041218017824E2FD6F60077F007E0412A6
:1001C6001967E4F5BBF5BA75AF011218841200661B
:1001D60012195B1219A01219AE12009E1219B11251
:1001E600199A20900D7F1F7E037D007C001218391E
:1001F60080F07BFF7A1679C7121973A290E4FE335A
:10020600FF121992758702D2063090030200AD7F65
:100216001F7E037D007C0012183980ED7819E214E8
:1002260070030203321470030203CD147003020438
:10023600B324FE70030204FD24056003020505785D
:10024600BDE2FFD36480948A4006E2240CF2804E1D
:10025600C3EF64809476500878BDE224F4F2803EC1
:10026600D3EF64809489400878BDE2240AF2802E98
:10027600C3EF64809477500878BDE224F6F2801EBE
:10028600D3EF64809486400878BDE22404F2800EA1
:10029600C3EF6480947A500678BDE224FCF278BD00
:1002A600E2FF7823E22FF2EF6038E2D3648094E332
:1002B6004004E2249CF27823E2FFC36480948050D9
:1002C60004EF2464F27823E2FF08E26F600DEF3357
:1002D60095E0FE1219927823E208F27823E2FF12E3
:1002E6000B782003030205051218527F007E0412C4
:1002F60018017824E26F600F18E2FD7F007E041279
:1003060019677823E208F2E4781DF278197402F28C
:100316007823E27004781904F27810E4F208746223
:10032600F278147401F21217880205057814E26453
:100336000370621217E5EF605078147401F27810BA
:10034600E4F2087463F23005030205057822E2043C
:10035600F2E2B43C1508E204F2E418F208E2B464EE
:1003660002E4F27823E2FF120B787822E2FF120C05
:10037600C47823E2FF3395E0FE1219927822E2FF59
:100386003395E0FE121992800C78147401F27810FD
:10039600E4F20804F2300302B20578BDE2FFC3645A
:1003A600809485500AEF6480947B4003020505E43F
:1003B6007814F278197405F212190A12195BE478A6
:1003C60023F218F20204F07814E2640360030204D4
:1003D600831217E5EF700302047478147401F2783F
:1003E60010E4F2087463F23005030205057822E290
:1003F6006005E214F2800E7822743BF208E214F2F1
:10040600E2FF120B787822E2FF120CC47823E2FF97
:100416003395E0FE1219927822E2FF3395E0FE1240
:1004260019927823E2FF3395E0FE18E2FD3395E05A
:10043600FCED2FFFEC3E4F70447810F208F21219D3
:100446000A78197403F27F007E407D9C7C45121069
:10045600737F321219A6121636781F7401F208E459
:10046600F2087414F2D207781A7401F2800F781425
:100476007401F27810E4F20804F202050530030272
:10048600B20578BDE2FFC3648094855007EF6480AF
:10049600947B506B12195BE47814F27824E218F21C
:1004A600E418F278197405F27823E2803D781FE2A9
:1004B6006403600D20010A78BDE270057828E260C9
:1004C6003E12199A12195BE4781AF2C207781FF2E3
:1004D6007BFF7A1679DF1219737824E218F2E41892
:1004E600F27819F27828F27823E2FF120B78782254
:1004F600E2FF120CC4800878BDE270037819F2E4BA
:0605060078BDF202013392
:100FA500812700812C00812501812901812601816C
:080FB5002A01812800812B00B4
:05009E00C291C2922294
:101714005391FD5392FD5391FB5392FBD291D2927C
:1017240078257401F208F27829F208F2E47827F2B5
:07173400782BF27828F22265
:100E0B00782BE2FE7034EF700CA291337825F2A2AE
:100E1B0092E43308F274252FF8E2FD74292FF8E2DF
:100E2B00B5051174262FF8E2FD742A2FF8E26D70C8
:100E3B0003020F45782B7402F222EED39401400685
:100E4B00782BE214F222E4782BF2EF700CA29133A0
:100E5B007825F2A292E43308F274262FF8E2B4015B
:100E6B000E74252FF8E2B4010674272FF8E4F27400
:100E7B00272FF8E214604F14606B147003020F17E6
:100E8B0024036003020F2D74252FF8E2FE701974F2
:100E9B00292FF8E2B4011174262FF8E2B40109747A
:100EAB00272FF87401F2807A74262FF8E27073748E
:100EBB002A2FF8E26401706AEE6401706574272FC3
:100ECB00F87402F2805C74252FF8E264017053749D
:100EDB00292FF8E2704C74262FF8E2704574282FF6
:100EEB00F8E204801D74262FF8E264017034742A32
:100EFB002FF8E2702D74252FF8E2702674282FF846
:100F0B00E214F274272FF87403F2801674262FF86C
:100F1B00E2B4010E74252FF8E2B4010674272FF802
:100F2B00E4F274252FF8E2FE74292FF8EEF2742602
:0B0F3B002FF8E2FE742A2FF8EEF222DD
:100FBD00813100813300813200813400813532C1AD
:070FCD0008842D0000000064
:030063000216E999
:1016E900C0E0C0D075D000C00053EFFEB2B230B236
:1016F900097831E2F5D6783380077832E2F5D67881
:0B17090034E2F5D7D000D0D0D0E032A1
:1018B4007834E2F5D77832E2F5D6438E04438E10BD
:0618C40043AF04D2AF2285
:0519A6007835EFF2228C
:1010730078BE120B5378C2120B5F0000000078C6D3
:10108300120B5F0000000078BEE2FB08E2F908E201
:10109300FA08E2CBF87F007E247D747C4A12088C28
:1010A30012092978C2120B537835E2FF3395E0FE1B
:1010B300FDFC78C2E2FB08E2F908E2FA08E2CBF8A9
:1010C3001209FFE47B64FAF9F8120A8A78C6120B54
:1010D3005378C6E2FB08E2F908E2FA08E2CBF8C368
:1010E300E49BFFE49AFE740199FDE498FC78C61230
:1010F3000B5378C6080808E2FF7833EFF278C6E2AC
:10110300FC08E2FD08E2FE08E2FF7808120B4078D3
:1011130031EFF278C6E2FB08E2F908E2FA08E2CB23
:10112300F8C00078C2E2FC08E2FD08E2FE08E2D063
:1011330000C39BFFEE9AFEED99FDEC98FC78C61276
:101143000B5378C6E2FB08E2F908E2FA08E2CBF8AF
:10115300C3E49BFFE49AFE740199FDE498FC78C60E
:10116300120B5378C6080808E2FF7834EFF278C60A
:10117300E2FC08E2FD08E2FE08E2FF7808120B40F9
:051183007832EFF222BA
:0319AB000218B46B
:06199A00538EEFC2B222E1
:1015D00020830F783EE2FF7838E2D39F5004D28315
:1015E000801030830D783EE2FF7838E2D39F4002CE
:1015F000C28320820F783DE2FF7837E2D39F500408
:10160000D282801030820D783DE2FF7837E2D39F9E
:101610004002C28220810E783CE2FF7836E2D39FFE
:101620005003D2812230810D783CE2FF7836E2D33C
:061630009F4002C281226E
:0C195B00C281C282C283C20853AFBF2207
:10126A007838E204F218E204F218E204F27838E27A
:10127A00B40B037401F27837E2B40B037401F27809
:10128A0036E2B40B037401F21215D0782DE2FC0891
:10129A00E2FD08E2FE08E2FFE4FAF9F8EF2401FFB2
:1012AA00EA3EFEE93DFDE83CFC782D120B53E47F53
:1012BA0078FEFDFC782DE2FB08E2F908E2FA08E282
:1012CA00CBF8C3120B2A7073782D120B5F00000043
:1012DA0000783EE2FFC3941E4007783B74FDF2801B
:1012EA000BEFC394025005783B7403F2783BE2FF9C
:1012FA00783EE22FF218E2FFC3941E4007783A7450
:10130A00FDF2800BEFC394025005783A7403F27829
:10131A003AE2FF783DE22FF218E2FFC3941E40073B
:10132A00783974FDF2800BEFC39402500578397452
:0C133A0003F27839E2FF783CE22FF22247
:10000E007838E204F218E204F218E204F27838E2E8
:10001E00B465037401F27837E2B465037401F278C3
:10002E0036E2B465037401F2C281C282C2837838AB
:10003E00E2B40102D2837837E2B40102D28278367A
:07004E00E2B40102D281229D
:0300A300021762DF
:10176200C0E0C0F0C083C082C0D075D00853EFFB88
:1017720030080512126A800312000ED0D0D082D037
:0617820083D0F0D0E0323C
:10191D0043D12075D37075D2E543D18043AF40D20A
:02192D00AF22E7
:10192F0053D1DF75D3CB75D27D43D18043AF40D236
:02193F00AF22D5
:10178800783E7432F2187419F2E418F27838F218C4
:10179800F218F2D208783B7403F218F218F2021920
:0117A8001D23
:10163600783FE2FE08E2FF7C007D0A1209AAAF05A8
:101646007838EDF2783FE2C313FE08E213FF7C0020
:101656007D0A1209AAAF057837EDF208E22403FFE6
:10166600E433FE7C007D0A1209AA7836EDF2C20840
:0316760002192F27
:040FD400823F000058
:03000B0002189D3B
:10189D00C0E0C0D075D0087840E22401F218E234DF
:0718AD0000F2D0D0D0E032C0
:1018F500438E805389F0758AC0758C63D2AFC28DD3
:05190500D2A9D28C22E2
:0319AE00C28C22C6
:1018CA00505553484544006B65792072656C6561D3
:0618DA00736578786400DC
:0D0FD800C102C10481440082410000C1003B
:1014B0007841E2FE08E2FFD39401EE64809480401C
:1014C0000AE224FFF218E234FFF2222090142004F2
:1014D000117844E2700CEF4E70087841F2087464A1
:1014E000F2222004157844E270107842E264017020
:1014F0000218E270057841F208F220902D7844E25B
:101500007015D2047BFF7A1879CA12197378447463
:1015100001F27815F28010C2047815E2B403087461
:1015200001F27844E204F2C202227844E26012D26C
:10153000027BFF7A1879D1121973C204E47844F25D
:0415400022C202229F
:030003000219B52A
:0119B50032FF
:0E005500A2029201A20492037844E218F22261
:030FE50081450043
:02009900002243
:1017A900E4FFFEC293120099EEC313FE3094034482
:0F17B90080FED2931200990FEFB408E7AF06221B
:0F173B00C295120099C293120099D2951200998B
:10174A00E4FEC293120099EFC313FF9294D293124C
:08175A0000990EEEB408EB2229
:0B197E0012173B1217A9D293C295224A
:0D19410012173BAF0512174AD293C2952230
:10190A00E4FD7F8E1219417D807F801219417F8EFE
:03191A000219416E
:0319B100D2B0228F
:10185200C2B0E47845F2FD7F8E1219410D7F8012ED
:0918620019417D807F8E021941BD
:1017E5007F8112197EEF540FFF7845E26F6005EF98
:0C17F500F27F01227F781200067F0022A4
:09198900C2B00000C295C2932215
:0D194E00E4F5C7F5C5F5C675C380F5C422E4
:1018010075C78475C5018FC4EEFF8FC375C65A7540
:0C181100C6A500000000AFC212194E2254
:1017C80075C78475C5028FC4EEFF8FC3AF058FC27E
:0D17D80075C65A75C6A50000000002194E26
:10186B0075C78475C5038FC4EEFF8FC375C65A75D4
:09187B00C6A50000000002194E90
:0C196700AB07AA0612186BAF030217C8EA
:080FE80082460000824800006F
:10181D0043B13843B238D2B5D2B3D2B475E710E480
:0C182D00F5E653E6F753E6FB53E6FD2218
:0619A00053E67FD2B622DF
:101346007848E2FE08E2FFEE60030213F1EF146054
:101356002214603714603F146054146068240560DA
:10136600030213F1E47846F208F243E680C2B6C2FD
:10137600B48045E5E620E004D2B480507849E22402
:1013860001F218E23400F2D2B480607846E4F20842
:1013960004F2C2B38022E5E620E004D2B3802D78C1
:1013A60049E22401F218E23400F2D2B3803D7846D5
:1013B600E4F2087402F2C2B57849E22401F218E2B6
:1013C6003400F28026E5E620E00CD2B57848E4F257
:1013D600087406F280157849E22401F218E2340016
:1013E600F27846E4F2087403F2D2B57849E264066C
:1013F600700218E2700E7848F208F21219A07846C8
:0714060008E2FF227FFF2234
:100FF000A0644B0001020304050607080910111242
:101000001314151617181920212223242526272802
:101010002930313233343536373839404142434450
:1010200045464748495051525354555657585960B0
:1010300061626364656667686970717273747576FE
:101040007778798081828384858687888990919258
:10105000939495969798998AB33F065B4F666D7DFA
:10106000077F6F814A0081AF0081B00081B10081AC
:02107000B200CC
:03009B00021188C7
:10118800C0E0C083C082C0D075D00853EFFD784A54
:10119800E2B4080040030212529011A8F8282873FC
:1011A8000211C00211D00211E50211F502120A0261
:1011B800121A02122F02123F43C92053CADF78AF16
:1011C800E2F4F5A0D296800D4391405392BF78AFD8
:1011D800E2F5A0C2965391BF439240806D4391407F
:1011E8005392BF78B0E2F4F5A0D297800D43918076
:1011F80053927F78B0E2F5A0C29753917F439280D3
:10120800804843918053927F78B1E2F4F5A0D2CC24
:10121800800D43C91053CAEF78B1E2F5A0C2CC5390
:10122800C9EF43CA10802343C91053CAEF78B2E20A
:10123800F4F5A0D2CD800D43C92053CADF78B2E2BD
:10124800F5A0C2CD53C9DF43CA20784AE204F2E2CE
:10125800C3648094884002E4F2D0D0D082D083D096
:02126800E03272
:10167900E4F593F59478B2F218F218F218F278B208
:10168900E24404F24391405392BF43918053927FC5
:1016990043C91053CAEF43C92053CADF53D1FD755B
:0E16A900D5BF75D4FC43AF2043D108D2AF2289
:1000660053D1F75391BF5392BF53917F53927F530E
:10007600C9EF53CAEF53C9DF53CADFC2CDC2CCC2E0
:1000860097C296E4F5A0F590D290F580F5B0F5C04C
:03009600F5C82288
:100B7800300703020CC3744B2FF8E2FFC4540F2450
:100B8800B3F8E2FE78AFE2543FF2E2FDEE30E5045E
:100B98007C8080027C00ED4C78AFF2E2FDEE30E024
:100BA800047C4080027C00ED4C78AFF208E2543FB0
:100BB800F2E2FDEE30E6047C8080027C00ED4C78A9
:100BC800B0F2E2FDEE30E1047C4080027C00ED4CA6
:100BD80078B0F208E2543FF2E2FDEE30E4047C80A3
:100BE80080027C00ED4C78B1F2E2FDEE30E2047C4C
:100BF8004080027C00ED4C78B1F208E2543FF2E20A
:100C0800FDEE30E3047C8080027C00ED4C78B2F28B
:100C18007816E2FDB4030678B2E24440F2EF540FCE
:100C280024B3F8E2FE78AFE254CFF2E2FFEE30E50B
:100C3800047C2080027C00EF4C78AFF2E2FFEE30BB
:100C4800E0047C1080027C00EF4C78AFF208E2549C
:100C5800CFF2E2FFEE30E6047C2080027C00EF4C0D
:100C680078B0F2E2FFEE30E1047C1080027C00EF05
:100C78004C78B0F208E254CFF2E2FFEE30E4047CA4
:100C88002080027C00EF4C78B1F2E2FFEE30E20403
:100C98007C1080027C00EF4C78B1F208E254CFF26D
:100CA800E2FFEE30E3047E2080027E00EF4E78B251
:0C0CB800F2EDC394024004E24410F2226A
:100CC400300703020E0A744B2FF8E2FFC4540F24BA
:100CD400B3F8E2FE78AFE254F3F2E2FDEE30E5045D
:100CE4007C0880027C00ED4C78AFF2E2FDEE30E04F
:100CF400047C0480027C00ED4C78AFF208E254F3EB
:100D0400F2E2FDEE30E6047C0880027C00ED4C78D3
:100D1400B0F2E2FDEE30E1047C0480027C00ED4C94
:100D240078B0F208E254F3F2E2FDEE30E4047C0819
:100D340080027C00ED4C78B1F2E2FDEE30E2047CFE
:100D44000480027C00ED4C78B1F208E254F3F2E244
:100D5400FDEE30E3047C0880027C00ED4C78B2F2B6
:100D6400E24404F2EF540F24B3F8E2FE78AFE25405
:100D7400FCF2E2FFEE30E5047D0180027D00EF4DE0
:100D840078AFF2E2FFEE30E0047D0280027D00EFF6
:100D94004D78AFF208E254FCF2E2FFEE30E6047D57
:100DA4000180027D00EF4D78B0F2E2FFEE30E10405
:100DB4007D0280027D00EF4D78B0F208E254FCF22F
:100DC400E2FFEE30E4047D0180027D00EF4D78B156
:100DD400F2E2FFEE30E2047D0280027D00EF4D7806
:100DE400B1F208E254FCF2E2FFEE30E3047E01804B
:100DF400027E00EF4E78B2F27816E2C39401400608
:070E040078B2E24402F22281
:101884004391405392BF43918053927F43C9105375
:09189400CAEF43C92053CADF2248
:1008890002099FEC5D046005E859047003020995AB
:10089900120960580460F6EC4860F2EC7004FDFE41
:1008A900FF22C860DB2481C85009C3986002500642
:1008B90002099C9850CAF582E9294B4A7005AB8216
:1008C90002098B75F0007C1A7880C3EF9BEE9AEDD4
:1008D90099400DC3EF9BFFEE9AFEED99FDE842F0BA
:1008E900DC23ACF0D0E0FFD0E0FED0E0FDAB82200D
:1008F900E7101BEB60BAEC2CFCEF33FFEE33FEED97
:1009090033FD020977E803F830E705C0F075F00018
:10091900EF2FFFEE33FEED33FD40B830E7C280AA7A
:10092900EDD2E7CD33EC3392D524814006E4FFFEC6
:10093900FDFC22FCE4CFCECDCC24E0501174FF8025
:10094900EDC3CC13CCCD13CDCE13CECF13CF0470C2
:07095900F030D5DE020B1C9B
:10096000E9D2E7C933E833F892D5EDD2E7CD33ECDD
:0709700033FC5002B2D52256
:10097700EC30E7100FBF000C0EBE00080DBD0004E1
:100987000BEB6014A2D5EB13FCED92E7FD2274FF8D
:10099700FCFDFEFF22E480F8A2D574FF13FC7D80E6
:0309A700E480EFFA
:03000000021544A2
:0C154400787FE4F6D8FD75812102158B3C
:1009AA00BC000BBE0029EF8DF084FFADF022E4CC31
:1009BA00F875F008EF2FFFEE33FEEC33FCEE9DECFA
:1009CA00984005FCEE9DFE0FD5F0E9E4CEFD22ED40
:1009DA00F8F5F0EE8420D21CFEADF075F008EF2F8A
:1009EA00FFED33FD4007985006D5F0F222C398FD7B
:0509FA000FD5F0EA2218
:1009FF00E88FF0A4CC8BF0A42CFCE98EF0A42CFC97
:100A0F008AF0EDA42CFCEA8EF0A4CDA8F08BF0A414
:100A1F002DCC3825F0FDE98FF0A42CCD35F0FCEB73
:100A2F008EF0A4FEA9F0EB8FF0A4CFC5F02ECD3938
:0F0A3F00FEE43CFCEAA42DCE35F0FDE43CFC22A5
:100A4E0075F008758200EF2FFFEE33FECD33CDCC5F
:100A5E0033CCC58233C5829BED9AEC99E5829840E2
:100A6E000CF582EE9BFEED9AFDEC99FC0FD5F0D6BF
:100A7E00E4CEFBE4CDFAE4CCF9A88222B800C1B9E9
:100A8E000059BA002DEC8BF084CFCECDFCE5F0CB27
:100A9E00F97818EF2FFFEE33FEED33FDEC33FCEB60
:100AAE0033FB10D703994004EB99FB0FD8E5E4F91B
:100ABE00FA227818EF2FFFEE33FEED33FDEC33FC08
:100ACE00C933C910D7059BE99A4007EC9BFCE99AFC
:100ADE00F90FD8E0E4C9FAE4CCFB2275F010EF2F41
:100AEE00FFEE33FEED33FDCC33CCC833C810D70741
:100AFE009BEC9AE899400AED9BFDEC9AFCE899F87C
:0E0B0E000FD5F0DAE4CDFBE4CCFAE4C8F9220E
:0E0B1C00C3E49FFFE49EFEE49DFDE49CFC22EA
:100B2A00EB9FF5F0EA9E42F0E99D42F0EC6480C842
:060B3A0064809845F022E2
:100B4000E8600FECC313FCED13FDEE13FEEF13FF93
:030B5000D8F122B7
:0C0B5300ECF208EDF208EEF208EFF222DE
:100B5F00D083D082E493F208740193F20874029365
:090B6F00F208740393F27404739C
:101550000200A6E493A3F8E493A34003F68001F20B
:1015600008DFF48029E493A3F85407240CC8C3339C
:10157000C4540F4420C8834004F456800146F6DF6B
:10158000E4800B0102040810204080900F46E47EA6
:10159000019360BCA3FF543F30E509541FFEE49360
:1015A000A360010ECF54C025E060A840B8E493A327
:1015B000FAE493A3F8E493A3C8C582C8CAC583CA52
:1015C000F0A3C8C582C8CAC583CADFE9DEE780BE0A
:01107200007D
:00000001FF
