:01192700229D
:0800030078BCEEF208EFF222D6
:0B19030078BCEBF208EAF208E9F222DF
:05009E0078BCEFF22226
:1017D500EC4D4E4F6012EF24FFFFEE34FFFEED346B
:0917E500FFFDEC34FFFC80E8225A
:1015FC006C6F7720766F6C74616765210073617610
:10160C0065642074696D653A00676F746F20736C44
:10161C006565702C206B65797072657373696E6784
:0B162C0000676F746F2069646C65003C
:10104200C103C100811B0081240081230081220091
:10105200811D00811F008115008112008113008112
:101062001C038217000081140082100000811A0004
:1010720082200000C102820000008202000082047D
:1010820000008206000082080000820A0000820C32
:101092000000820E0000811900C101811E0081162C
:0110A200004D
:1008C400900000781DE2B40114783EE2FF08E2785B
:1008D40002CFF208EFF2781D7402F28052781DE222
:1008E4006402704B783EE2FE08E2FF7802E2FC0804
:1008F400E2FDC39FEC9E500EC3783FE29DF5821843
:10090400E29CF58380197802E2FE08E2FFC3E49FCB
:10091400FFE49EFE783FE22FF58218E23EF583C3A2
:10092400E5829464E58394004005781D7403F278AD
:1009340012E2B40114783EE2FF08E2780CCFF20828
:10094400EFF278127402F2805A7812E26402705361
:10095400783EE2FE08E2FF780CE2FC08E2FDC39F69
:10096400EC9E500EC3783FE29DF58218E29CF5831D
:100974008019780CE2FE08E2FFC3E49FFFE49EFEC8
:10098400783FE22FF58218E23EF583AF82AE83E42E
:10099400FCFD7B607AEAF9F8D312088950057812D5
:1009A4007403F2781CE2B40114783EE2FF08E278A2
:1009B4000ECFF208EFF2781C7402F2805A781CE22F
:1009C40064027053783EE2FE08E2FF780EE2FC080F
:1009D400E2FDC39FEC9E500EC3783FE29DF5821862
:1009E400E29CF5838019780EE2FE08E2FFC3E49FDF
:1009F400FFE49EFE783FE22FF58218E23EF583AFD6
:100A040082AE83E4FCFD7B607AEAF9F8D3120889AC
:100A14005005781C7403F27815E2B40114783EE2B0
:100A2400FF08E2780ACFF208EFF278157402F28038
:100A3400527815E26402704B783EE2FE08E2FF78D9
:100A44000AE2FC08E2FDC39FEC9E500EC3783FE22D
:100A54009DF58218E29CF5838019780AE2FE08E28B
:100A6400FFC3E49FFFE49EFE783FE22FF58218E285
:100A74003EF583C3E58294E8E58394034005781545
:100A84007403F2781FE2B40114783EE2FF08E278BE
:100A940000CFF208EFF2781F7402F28052781FE25E
:100AA4006402704B783EE2FE08E2FF7800E2FC0844
:100AB400E2FDC39FEC9E500EC3783FE29DF5821881
:100AC400E29CF58380197800E2FE08E2FFC3E49F0C
:100AD400FFE49EFE783FE22FF58218E23EF583C3E1
:100AE400E5829440E583941F4005781F7403F278EF
:100AF40014E2B40114783EE2FF08E27804CFF2086D
:100B0400EFF278147402F280537814E26402704CA9
:100B1400783EE2FE08E2FF7804E2FC08E2FDC39FAF
:100B2400EC9E500EC3783FE29DF58218E29CF5835B
:100B340080197804E2FE08E2FFC3E49FFFE49EFE0E
:100B4400783FE22FF58218E23EF583D37811E295DF
:100B54008218E29583500578147403F2781BE2FF3F
:100B6400B40114783EE2FD08E27808CDF208EDF213
:100B7400781B7402F28050EF6402704B783EE2FE00
:100B840008E2FF7808E2FC08E2FDC39FEC9E500EE9
:100B9400C3783FE29DF58218E29CF58380197808BA
:100BA400E2FE08E2FFC3E49FFFE49EFE783FE22FEB
:100BB400F58218E23EF583C3E5829401E58394004F
:100BC4004005781B7403F2781AE2FFB40114783EEE
:100BD400E2FD08E27806CDF208EDF2781A7402F22A
:100BE4008053EF6402704E783EE2FE08E2FF78061E
:100BF400E2FC08E2FDC39FEC9E500EC3783FE29DE9
:100C0400F58218E29CF58380197806E2FE08E2FF7B
:100C1400C3E49FFFE49EFE783FE22FF58218E23E94
:100C2400F583AE83AF82D37821E29F18E29E50050C
:100C3400781A7403F2781AE264037033B202300251
:100C44000F7820F20874C9F212182012005A801A80
:100C540012006078207401F208742DF27823E2FF08
:100C6400120C747822E2FF120DC0781A7401F22279
:101893001216E71219271218A8121919121922126F
:0518A30015BE02182033
:10142300781CE2B403127818E22401F218E23400C3
:10143300F2781C7401F28007781CE2700204F2C394
:101443007818E2941E18E294004050121255781E48
:10145300EFF2F46046E47817F208F2781EE2702E99
:101463007BFF7A1579FC121903781BE2FF700604DF
:10147300F27816F222EFB403227816E270047F01A9
:1014830080027F007816EFF2781B7401F222781E37
:0C149300E2FFD3940040047816EFF22230
:1000A600E478BBF21218EBE47819F212005A12182F
:1000B60039E47812F208F2781AF2C2027814F27869
:1000C6001DF27815F2781FF27823F218F2C205C2F3
:1000D600067842F2C2007817F208F2781C7403F22E
:1000E6001218937F007E0412179F7824EFF2D394A0
:1000F600634002E4F27824E218F27BFF7A1679096B
:100106001219037824E2FF7E001200037822E2FF30
:10011600120DC07823E2FF120C74781B7401F212E0
:1001260008C4E4FF120F071213A2E478BBF2782882
:10013600E2FF6007781DE2700204F2781DE2B40364
:100146000AE4F278BBEFF2E47828F27842E2702E05
:1001560020052B2006287819E270237828E2701EE5
:1001660078BBE270197812E2B4030A08E204F218C6
:100176007401F2800F7812E2700A04F28006E478C5
:1001860013F218F27819E270031214237842E2C3CC
:10019600940350087813E2C3940140657F007E04FF
:1001A60012179F7824E2FD6F60077F007E04121805
:1001B600F7E4F5BBF5BA75AF011218201216C01296
:1001C60018EB12191E20900D7FC77E007D007C0063
:1001D6001217D580F07BFF7A167915121903A290B3
:1001E600E4FE33FF120003D2AF758702D2013090CE
:1001F600030200AA7FC77E007D007C001217D5800F
:10020600ED7819E21470030203181470030203B2A6
:1002160014700302049724FE70030204E1240560AF
:10022600030204E978BBE2FFD36480948A4006E2C5
:10023600240CF2804EC3EF64809476500878BBE2BB
:1002460024F4F2803ED3EF64809489400878BBE2C0
:10025600240AF2802EC3EF64809477500878BBE2BC
:1002660024F6F2801ED3EF64809486400878BBE2C1
:100276002404F2800EC3EF6480947A500678BBE2C1
:1002860024FCF278BBE2FF7823E22FF2EF6038E23B
:10029600D3648094E34004E2249CF27823E2FFC313
:1002A600648094805004EF2464F27823E2FF08E22D
:1002B6006F600DEF3395E0FE1200037823E208F23B
:1002C6007823E2FF120C742006030204E91217EEEB
:1002D6007F007E0412179F7824E26F600F18E2FDFC
:1002E6007F007E041218F77823E208F2E4781DF204
:1002F60078197402F27823E27004781904F27810FF
:100306007403F20874ACF278147401F2121728021E
:1003160004E97814E264037064121783EF6051787D
:10032600147401F278107403F20874DEF2300003DC
:100336000204E97822E204F2E2B43C1508E204F28F
:10034600E418F208E2B46402E4F27823E2FF120C45
:10035600747822E2FF120DC07823E2FF3395E0FEA7
:100366001200037822E2FF3395E0FE120003800DAF
:1003760078147401F27810E4F2087405F23006027B
:10038600B20078BBE2FFC364809485500AEF6480B4
:10039600947B40030204E9E47814F278197405F2B8
:1003A600121922E47823F218F20204D47814E264D3
:1003B60003600302046A121783EF700302045A787B
:1003C600147401F278107403F20874DEF23000033C
:1003D6000204E97822E26005E214F2800E782274C3
:1003E6003BF208E214F2E2FF120C747822E2FF12EA
:1003F6000DC07823E2FF3395E0FE1200037822E277
:10040600FF3395E0FE1200037823E2FF3395E0FE0A
:1004160018E2FD3395E0FCED2FFFEC3E4F7045787A
:1004260010F208F212192278197403F27F007E0086
:100436007DFA7C4412149F7F0A1218BD12000E78B2
:100446001F7401F208E4F20874C9F2D202781A7431
:1004560001F2801078147401F27810E4F208740A3C
:10046600F20204E9300602B20078BBE2FFC3648000
:1004760094855007EF6480947B5068E47814F27892
:1004860024E218F2E418F278197405F27823E2806F
:100496003D781FE26403600D20050A78BBE2700513
:1004A6007828E2603E12005A1218EBE4781AF2C27B
:1004B60002781FF27BFF7A16792D1219037824E24F
:1004C60018F2E418F27819F27828F27823E2FF128B
:1004D6000C747822E2FF120DC0800878BBE270032C
:0A04E6007819F2E478BBF202012558
:1010A300812700812C00812501812901812601816D
:0810B3002A01812800812B00B5
:1018390078257401F208F27829F208F2E47827F29F
:07184900782BF27828F2224F
:100F0700782BE2FE7034EF700CA291337825F2A2B1
:100F170092E43308F274252FF8E2FD74292FF8E2E2
:100F2700B5051174262FF8E2FD742A2FF8E26D70CB
:100F370003021041782B7402F222EED3940140068B
:100F4700782BE214F222E4782BF2EF700CA29133A3
:100F57007825F2A292E43308F274262FF8E2B4015E
:100F67000E74252FF8E2B4010674272FF8E4F27403
:100F7700272FF8E214604F14606B147003021013EC
:100F87002403600302102974252FF8E2FE701974F8
:100F9700292FF8E2B4011174262FF8E2B40109747D
:100FA700272FF87401F2807A74262FF8E270737491
:100FB7002A2FF8E26401706AEE6401706574272FC6
:100FC700F87402F2805C74252FF8E26401705374A0
:100FD700292FF8E2704C74262FF8E2704574282FF9
:100FE700F8E204801D74262FF8E264017034742A35
:100FF7002FF8E2702D74252FF8E2702674282FF849
:10100700E214F274272FF87403F2801674262FF86F
:10101700E2B4010E74252FF8E2B4010674272FF805
:10102700E4F274252FF8E2FE74292FF8EEF2742605
:0B1037002FF8E2FE742A2FF8EEF222E0
:1010BB00813100813300813200813400813532C1AE
:0910CB0007822F0000823BFEB3F6
:0300630002166E14
:10166E00C0E0C0D075D000C00053EFFEB2B220B2C1
:10167E00097831E2F5D6783380077832E2F5D678FC
:0B168E0034E2F5D7D000D0D0D0E0321D
:101867007833E2F5D77831E2F5D6438E04438E100C
:0618770043AF04D2AF22D2
:1018BD00C3EF648094E4500BEF648094804004780F
:0418CD0035EFF222DF
:10006600AB07AA06A905A8047F007E247D747C4AF6
:100076001205EBA804A905AA06AB07E4FFFE7D80DE
:100086007C471204F3120688EF7833F208F2EE7812
:0500960031F208F22226
:10149F0078BC12089F78C01208AB0000000078BC1F
:1014AF00E2FB08E2F908E2FA08E2CBF87F007E24BB
:1014BF007D747C4A1205EB12068878C012089F785B
:1014CF0035E2FF3395E0FEFDFC78C0E2FB08E2F960
:1014DF0008E2FA08E2CBF812075EE47B64FAF9F847
:1014EF001207E9AB07EBF404FB7833F27831E4F23F
:1014FF0078C0080808E2C39BF4047834F27832E429
:02150F00F222C6
:030060000218671C
:06005A00538EEFD2B2222A
:1015110030810F783DE2FF7838E2D39F5004C281D9
:10152100801020810D783DE2FF7838E2D39F4002A0
:10153100D28130820F783AE2FF7837E2D39F5004AC
:10154100C282801020820D783AE2FF7837E2D39F81
:101551004002D28230830E7839E2FF7836E2D39F9F
:101561005003C2832220830D7839E2FF7836E2D31B
:061571009F4002D283221C
:0C18EB0053AFBFD283D282D281C2072249
:101637007838E204F218E204F218E204F27838E2A9
:10164700B465037401F27837E2B465037401F27884
:1016570036E2B465037401F21215117830E2240101
:07166700F218E23400F22248
:101577007838E204F218E204F218E204F27838E26A
:10158700B40B037401F27837E2B40B037401F278F9
:1015970036E2B40B037401F2D283D282D281783857
:1015A700E2B40102C2817837E2B40102C28278361E
:0715B700E2B40102C283222D
:0300A3000217BB86
:1017BB00C0E0C0D075D00853EFFB300705121637C9
:0A17CB008003121577D0D0D0E03271
:1017080053D1DF783BE2FE08E24E60047D0180029F
:101718007D008DD3EEF5D243D18043AF40D2AF22C6
:10172800783D740AF2783AF218F2E418F218F218CE
:0F173800F2D207783B74FFF20874EFF202170841
:10000E00783EE2FE08E2FF7C007D0A120709AF058A
:10001E007838EDF2783EE2C313FE08E213FF7C005F
:10002E007D0A120709AF057837EDF208E2240AFFC0
:10003E00E433FE7C007D0A1207097836EDF2C20722
:0C004E00783B747DF20874BCF2021708C5
:0410D400823E000058
:03000B0002185088
:10185000C0E0C0D075D008783FE22401F218E2342D
:0718600000F2D0D0D0E0320D
:1018A800538E7F5389F0758AB3758CFED2AFC28D83
:0518B800D2A9D28C2230
:10187D00505553484544006B65792072656C656120
:06188D0073657878640029
:0D10D800C105C106814200C1048240000034
:1013A2007840E2FE08E2FFD39401EE64809480402C
:1013B2000AE224FFF218E234FFF2222090142006FF
:1013C200117842E2700CEF4E70087840F2087464B3
:1013D200F222E47840F208F220902C08E27015D252
:1013E200067BFF7A18797D12190378427401F2782C
:1013F20015F28010C2067815E2B403087401F2787F
:1014020042E204F2C205227842E26012D2057BFF78
:101412007A187984121903C206E47842F222C205CC
:0114220022A7
:0310E50081430044
:0219250000229E
:10174700E4FFFEC293121925EEC313FE309403443F
:0F17570080FED2931219250FEFB408E7AF0622D8
:0F169900C295121925C293121925D2951219253F
:1016A800E4FEC293121925EFC313FF9294D293124A
:0816B80019250EEEB408EB2227
:0B190E00121699121747D293C29522BF
:0D18D100121699AF051216A8D293C29522E7
:03192200C2B0222E
:1017EE00D2B0E47843F2FD7F8E1218D10D7F8012B5
:0917FE0018D17D807F8E0218D104
:101783007F8112190EEF540FFF7843E26F6005EF6C
:0C179300F27F01227F7812009E7F00226E
:05191900C295C29322FB
:0D18DE00E4F5C7F5C5F5C675C380F5C42255
:10179F0075C78475C5018FC4EEFF8FC375C65A75A3
:0C17AF00C6A500000000AFC21218DE2228
:1017660075C78475C5028FC4EEFF8FC3AF058FC2E0
:0D17760075C65A75C6A5000000000218DEF9
:1018070075C78475C5038FC4EEFF8FC375C65A7538
:09181700C6A5000000000218DE65
:0C18F700AB07AA06121807AF0302176621
:0810E800824400008246000171
:1016E70043B13843B238D2B5D2B3D2B475E710E4B8
:1016F700F5E653E6F753E6FB53E6FD43E680C2B64D
:0117070022BF
:04191E0053E67F22EB
:101255007846E2FE08E2FFEE60030212FBEF14603F
:101265001D14603214603A14604F146063240560E5
:10127500030212FBE47844F208F2C2B48045E5E6C5
:1012850020E004D2B480507847E22401F218E23419
:1012950000F2D2B480607844E4F20804F2C2B3806C
:1012A50022E5E620E004D2B3802D7847E22401F25E
:1012B50018E23400F2D2B3803D7844E4F2087402B7
:1012C500F2C2B57847E22401F218E23400F2802632
:1012D500E5E620E00CD2B57846E4F2087406F28023
:1012E500157847E22401F218E23400F27844E4F27A
:1012F500087403F2D2B57847E26406700218E2700A
:101305000D7846F208F2C2B6784408E2FF227FFF64
:0113150022B5
:1010F000A064490001020304050607080910111243
:101100001314151617181920212223242526272801
:10111000293031323334353637383940414243444F
:1011200045464748495051525354555657585960AF
:1011300061626364656667686970717273747576FD
:101140007778798081828384858687888990919257
:10115000939495969798998AB13F065B4F666D7DFB
:10116000077F6F81480081AD0081AE0081AF0081B3
:02117000B000CD
:03009B00021173DC
:10117300C0E0C083C082C0D075D00853EFFD78486B
:10118300E2B40800400302123D901193F82828733B
:101193000211AB0211BB0211D00211E00211F502E0
:1011A300120502121A02122A43C92053CADF78AD6C
:1011B300E2F4F5A0D296800D4391405392BF78ADEF
:1011C300E2F5A0C2965391BF439240806D43914094
:1011D3005392BF78AEE2F4F5A0D297800D4391808D
:1011E30053927F78AEE2F5A0C29753917F439280EA
:1011F300804843918053927F78AFE2F4F5A0D2CC3C
:10120300800D43C91053CAEF78AFE2F5A0C2CC53A7
:10121300C9EF43CA10802343C91053CAEF78B0E221
:10122300F4F5A0D2CD800D43C92053CADF78B0E2D4
:10123300F5A0C2CD53C9DF43CA207848E204F2E2E5
:10124300C3648094884002E4F2D0D0D082D083D0AB
:02125300E03287
:1015BE00E4F593F59478B0F218F218F218F278B0C8
:1015CE00E24404F24391405392BF43918053927F81
:1015DE0043C91053CAEF43C92053CADF53D1FD7517
:0E15EE00D5BF75D4FC43AF2043D108D2AF2245
:1016C00053D1F7E4F5A0C2CDC2CCC297C2964391E4
:1016D000405392BF43918053927F43C91053CAEF46
:0716E00043C92053CADF22B9
:100C7400300203020DBF74492FF8E2FFC4540F245D
:100C8400B1F8E2FE78ADE2543FF2E2FDEE30E50465
:100C94007C8080027C00ED4C78ADF2E2FDEE30E029
:100CA400047C4080027C00ED4C78ADF208E2543FB5
:100CB400F2E2FDEE30E6047C8080027C00ED4C78AC
:100CC400AEF2E2FDEE30E1047C4080027C00ED4CAB
:100CD40078AEF208E2543FF2E2FDEE30E4047C80A8
:100CE40080027C00ED4C78AFF2E2FDEE30E2047C51
:100CF4004080027C00ED4C78AFF208E2543FF2E20F
:100D0400FDEE30E3047C8080027C00ED4C78B0F290
:100D14007816E2FDB4030678B0E24440F2EF540FD3
:100D240024B1F8E2FE78ADE254CFF2E2FFEE30E512
:100D3400047C2080027C00EF4C78ADF2E2FFEE30C0
:100D4400E0047C1080027C00EF4C78ADF208E254A1
:100D5400CFF2E2FFEE30E6047C2080027C00EF4C10
:100D640078AEF2E2FFEE30E1047C1080027C00EF0A
:100D74004C78AEF208E254CFF2E2FFEE30E4047CA9
:100D84002080027C00EF4C78AFF2E2FFEE30E20408
:100D94007C1080027C00EF4C78AFF208E254CFF272
:100DA400E2FFEE30E3047E2080027E00EF4E78B056
:0C0DB400F2EDC394024004E24410F2226D
:100DC000300203020F0674492FF8E2FFC4540F24C7
:100DD000B1F8E2FE78ADE254F3F2E2FDEE30E50464
:100DE0007C0880027C00ED4C78ADF2E2FDEE30E054
:100DF000047C0480027C00ED4C78ADF208E254F3F0
:100E0000F2E2FDEE30E6047C0880027C00ED4C78D6
:100E1000AEF2E2FDEE30E1047C0480027C00ED4C99
:100E200078AEF208E254F3F2E2FDEE30E4047C081E
:100E300080027C00ED4C78AFF2E2FDEE30E2047C03
:100E40000480027C00ED4C78AFF208E254F3F2E249
:100E5000FDEE30E3047C0880027C00ED4C78B0F2BB
:100E6000E24404F2EF540F24B1F8E2FE78ADE2540C
:100E7000FCF2E2FFEE30E5047D0180027D00EF4DE3
:100E800078ADF2E2FFEE30E0047D0280027D00EFFB
:100E90004D78ADF208E254FCF2E2FFEE30E6047D5C
:100EA0000180027D00EF4D78AEF2E2FFEE30E1040A
:100EB0007D0280027D00EF4D78AEF208E254FCF234
:100EC000E2FFEE30E4047D0180027D00EF4D78AF5B
:100ED000F2E2FFEE30E2047D0280027D00EF4D7809
:100EE000AFF208E254FCF2E2FFEE30E3047E018050
:100EF000027E00EF4E78B0F27816E2C3940140060D
:070F000078B0E24402F22286
:101820004391405392BF43918053927F43C91053D9
:09183000CAEF43C92053CADF22AC
:1004F0000206F4E86480F8E933E83360110460F040
:10050000ED33EC337009E8FCE9FDEAFEEBFF220471
:1005100060DED3EB9FEA9EE99DE8C2E78CF0C2F76C
:1005200095F0400CE8CCF8E9CDF9EACEFAEBCFFB38
:100530001206BF85D0F05804700320D5B3E80470CC
:10054000075002B2D50206FE92D5EC0460F7E4CC67
:10055000C0E0C398F8603B94186008400DD0E0FB01
:100560000206D6E4FBFAC9FC8028E830E406E4C9B8
:10057000FBE4CAFCE830E305E4C9CACBFCE8540755
:100580006010F8C3E913F9EA13FAEB13FBEC13FC60
:10059000D8F130F52FC3E49CFCEF9BFFEE9AFEED03
:1005A00099FDD0E0FBEF4E4D4C701222DB030206AA
:1005B000FBEC2CFCEF33FFEE33FEED33FDED30E7CB
:1005C000EB0206D6EF2BFFEE3AFEED39FDD0E0FB55
:1005D00050130BBB00030206FEED13FDEE13FEEFFE
:0805E00013FFEC13FC0206D628
:1005E8000206FEEC5D046005E8590470030206F497
:1005F8001206BF580460F6EC4860F2EC7004FDFE89
:10060800FF22C860DB2481C85009C39860025006E5
:100618000206FB9850CAF582E9294B4A7005AB825D
:100628000206EA75F0007C1A7880C3EF9BEE9AED1B
:1006380099400DC3EF9BFFEE9AFEED99FDE842F05D
:10064800DC23ACF0D0E0FFD0E0FED0E0FDAB8220B0
:10065800E7101BEB60BAEC2CFCEF33FFEE33FEED3A
:1006680033FD0206D6E803F830E705C0F075F00060
:10067800EF2FFFEE33FEED33FD40B830E7C280AA1E
:10068800EDD2E7CD33EC3392D524814006E4FFFE6A
:10069800FDFC22FCE4CFCECDCC24E0501174FF80C9
:1006A800EDC3CC13CCCD13CDCE13CECF13CF047066
:0706B800F030D5DE02087BE3
:1006BF00E9D2E7C933E833F892D5EDD2E7CD33EC81
:0706CF0033FC5002B2D522FA
:1006D600EC30E7100FBF000C0EBE00080DBD000485
:1006E6000BEB6014A2D5EB13FCED92E7FD2274FF31
:1006F600FCFDFEFF22E480F8A2D574FF13FC7D808A
:03070600E480EF9D
:03000000021316D2
:0C131600787FE4F6D8FD75812002135D9D
:10070900BC000BBE0029EF8DF084FFADF022E4CCD4
:10071900F875F008EF2FFFEE33FEEC33FCEE9DEC9D
:10072900984005FCEE9DFE0FD5F0E9E4CEFD22EDE3
:10073900F8F5F0EE8420D21CFEADF075F008EF2F2D
:10074900FFED33FD4007985006D5F0F222C398FD1E
:050759000FD5F0EA22BB
:10075E00E88FF0A4CC8BF0A42CFCE98EF0A42CFC3A
:10076E008AF0EDA42CFCEA8EF0A4CDA8F08BF0A4B8
:10077E002DCC3825F0FDE98FF0A42CCD35F0FCEB17
:10078E008EF0A4FEA9F0EB8FF0A4CFC5F02ECD39DC
:0F079E00FEE43CFCEAA42DCE35F0FDE43CFC2249
:1007AD0075F008758200EF2FFFEE33FECD33CDCC03
:1007BD0033CCC58233C5829BED9AEC99E582984086
:1007CD000CF582EE9BFEED9AFDEC99FC0FD5F0D663
:1007DD00E4CEFBE4CDFAE4CCF9A88222B800C1B98D
:1007ED000059BA002DEC8BF084CFCECDFCE5F0CBCB
:1007FD00F97818EF2FFFEE33FEED33FDEC33FCEB04
:10080D0033FB10D703994004EB99FB0FD8E5E4F9BE
:10081D00FA227818EF2FFFEE33FEED33FDEC33FCAB
:10082D00C933C910D7059BE99A4007EC9BFCE99A9F
:10083D00F90FD8E0E4C9FAE4CCFB2275F010EF2FE4
:10084D00FFEE33FEED33FDCC33CCC833C810D707E4
:10085D009BEC9AE899400AED9BFDEC9AFCE899F81F
:0E086D000FD5F0DAE4CDFBE4CCFAE4C8F922B2
:0E087B00C3E49FFFE49EFEE49DFDE49CFC228E
:10088900EB9FF5F0EA9E42F0E99D42F0EC6480C8E6
:0608990064809845F02286
:0C089F00ECF208EDF208EEF208EFF22295
:1008AB00D083D082E493F208740193F2087402931C
:0908BB00F208740393F274047353
:101322000200A6E493A3F8E493A34003F68001F23B
:1013320008DFF48029E493A3F85407240CC8C333CC
:10134200C4540F4420C8834004F456800146F6DF9B
:10135200E4800B0102040810204080901042E47ED9
:10136200019360BCA3FF543F30E509541FFEE49390
:10137200A360010ECF54C025E060A840B8E493A357
:10138200FAE493A3F8E493A3C8C582C8CAC583CA82
:10139200F0A3C8C582C8CAC583CADFE9DEE780BE3A
:01117200007C
:00000001FF
